:020000040800F2
:1000000060100020251500081D0200081F020008CE
:1000100023020008270200082B020008000000004D
:100020000000000000000000000000002F02000897
:100030003102000800000000330200083502000809
:100040003F1500083F1500083F1500083F15000840
:100050003F1500083F1500083F1500083F15000830
:100060003F1500083F1500083F1500083F15000820
:100070003F1500083F1500083F1500083F15000810
:100080003F1500083F1500083F1500083F15000800
:100090003F1500083F1500083F1500083F150008F0
:1000A0003F1500083F1500083F1500083F150008E0
:1000B0003F1500083F1500083F1500083F150008D0
:1000C0003F1500083F1500083F1500083F150008C0
:1000D0003F1500083F1500083D0200083F150008C5
:1000E000D90200083F1500083F1500083F15000819
:1000F0003F1500083F1500083F1500083F15000890
:100100003F1500083F1500083F1500083F1500087F
:100110003F1500083F1500083F1500083F1500086F
:100120003F1500083F1500083F1500083F1500085F
:1001300000F002F800F062F80AA090E8000C824497
:100140008344AAF10107DA4501D100F057F8AFF274
:10015000090EBAE80F0013F0010F18BFFB1A43F0A5
:1001600001031847A03D0000C03D00000A444FF0C5
:10017000000C10F8013B13F0070408BF10F8014B06
:100180001D1108BF10F8015B641E05D010F8016B4B
:10019000641E01F8016BF9D113F0080F1EBF10F8AF
:1001A000014BAD1C0C1B09D16D1E58BF01F801CBD2
:1001B000FAD505E014F8016B01F8016B6D1EF9D555
:1001C0009142D6D37047000000230024002500266A
:1001D000103A28BF78C1FBD8520728BF30C148BFAA
:1001E0000B607047642903F0B782732903F0A3837F
:1001F000002070471FB51FBD10B510BD03F0B6FB42
:100200001146FFF7F7FF00F0CDFA03F0D4FB03B47B
:10021000FFF7F2FF03BC03F05BF90000704700BF7B
:10022000FEE700BFFEE700BFFEE700BFFEE7704746
:100230007047704710B500F04DFE10BD70B5002539
:1002400040F225514C4803F0FFF8002843D04A48BB
:1002500003F07AF804464948007800F0010080BBBA
:100260004648007800F0020060B1232C03D0002043
:100270004249087025E04148007840F001003F49BC
:1002800008701EE02A2C06D13C48007840F002009D
:100290003A49087015E03A490988C1F30D01394A15
:1002A00054542146384803F04BF835480088401C28
:1002B0003349088008460088C72802DD00202F49FE
:1002C00008702E48007800F0010020B100202B4972
:1002D00008702B49088070BD2DE9F04100240026EC
:1002E000002530E04FF40041284801F052FD01287C
:1002F00029D100F030FD0446FA2C00DB24E0C82CA4
:1003000003DBFA2C01DA01260AE03C2C03DB5A2C31
:1003100001DA012704E00A2C02DB322C00DA002784
:10032000012E0ED11A48006840001949086008469D
:10033000006838440860202D03DB0120154908704F
:1003400002E0681CC5B2CDE700BF11480068000E8E
:10035000114908700E480068000C48700C4800886D
:10036000000A88700A480078C8704FF4004001F015
:1003700014FCBDE8F08100000044004000000020B3
:100380000200002038090020003801400020014010
:100390003001002034010020350100200CB5002080
:1003A000019000906C48006840F480306A49086011
:1003B00000BF6948006800F4003000900198401CBC
:1003C0000190009818B90198B0F5A06FF1D162487A
:1003D000006800F4003010B10120009001E000201E
:1003E00000900098012843D15C48006840F010005C
:1003F0005A4908600846006820F003000860084673
:10040000006840F002000860534840685249486064
:100410000846406848600846406840F4806048608C
:100420000846406820F47C1048600846406840F464
:10043000E81048600846006840F08070086000BF1F
:100440004548006800F000700028F9D04248406834
:1004500020F00300404948600846406840F0020030
:10046000486000BF3C48406800F00C000828F9D103
:100470000CBD10B5FFF792FF10BD10B536480068EF
:1004800040F001003449086008464068344908409B
:100490003149486008460068324908402E490860E2
:1004A0000846006820F4802008600846406820F470
:1004B000FE0048604FF41F008860FFF7DAFF4FF03E
:1004C00000602949086010BD10B5002100200022FD
:1004D000214B5B6803F00C0121B1042906D00829E7
:1004E00028D107E0214B224C236027E01F4B204CF2
:1004F000236023E0184B5B6803F47010164B5B68B5
:1005000003F48032022303EB904022B9194B43439A
:10051000174C23600DE0104B5B6803F4003323B1EC
:10052000144B4343124C236003E0104B4343104CE5
:10053000236003E00D4B0E4C236000BF00BF064B51
:100540005B68C3F303130C4CE15C094B1B68CB40A5
:10055000074C236010BD0000001002400020024044
:100560000000FFF8FFFFF6FE08ED00E000127A0041
:100570000400002000093D000800002000BF604A80
:10058000128802F04002002AF9D0C2B25C4B1B1D57
:100590001A80704708B54FF4A06000F0E3FF2620F2
:1005A0008DF8000001208DF801008DF802008DF813
:1005B0000300684600F0DBFF08BD00B585B00121EF
:1005C000480401F01CFE0121042001F00BFE08206C
:1005D000ADF8100004208DF8130004A9494801F07B
:1005E00045FB0420ADF8100018208DF813000320FF
:1005F0008DF8120004A9434801F038FB4FF4E130B4
:1006000000900020ADF80400ADF80600ADF8080039
:10061000ADF80C000C20ADF80A006946384802F02D
:1006200096FDFFF7B7FF012240F22551344802F052
:1006300026FE0121324802F016FE05B000BD70B55D
:1006400004460D462946204602F07AFE00BF80216E
:10065000204602F0E3FE0028F9D070BD2DE9F041FC
:1006600007460C460025002645EA242546EA0400F4
:10067000C6B22946384602F063FE00BF80213846E4
:1006800002F0CCFE0028F9D03146384602F058FE80
:1006900000BF8021384602F0C1FE0028F9D0BDE835
:1006A000F0812DE9F04107460D461646002405E08D
:1006B000295D3846FFF7C3FF601CC4B2B442F7DBC4
:1006C00000BF4021384602F0A9FE0028F9D0BDE85D
:1006D000F08170B506460C46002500BF615D3046CE
:1006E000FFF7ADFF681C85B2605D0028F6D100BF42
:1006F0004021304602F092FE0028F9D070BD000083
:10070000004400400008014070B504464FF07E519F
:10071000204603F077FB07D2012010490860002033
:100720000F49C1F8B40118E0204603F0FFFA05466E
:100730000C4A0D4B03F0C4FA08D201200749091DE9
:10074000086000200649C1F8B00106E00120034915
:10075000091D08600249C1F8B00170BDB081214295
:10076000008021429A9999999999014000E0401E90
:100770000028FCD1704710B57848007820B178483F
:100780000068FFF7C1FF05E001207649086076495F
:10079000C1F8B00110BD10B57448007808B100F080
:1007A0000CFB10BDB4B0002464211BA803F010F8AA
:1007B000642102A803F00CF8FFF75FFE00F093FB42
:1007C00000F058FB00F0FCF802F0DCFE02F0D4FE72
:1007D0004FF4E13002F07FFEFFF7EFFE00F00CF97E
:1007E00000F061FA00F07CFA00F0D2FA00F00FFE9F
:1007F00021465FA002F032FF43F251215E4802F031
:100800009FFD65215D4802F09BFDA5E021465CA0AF
:1008100002F024FF4FF4967002F0F1FE0121002057
:1008200000F043F95B4908800846008803F0D6FAD7
:10083000814603F07BFA07464FF06632564B03F0D1
:1008400041F9054603F0C4F845490860534800786B
:10085000072872D2DFE800F071041A253A595A00CD
:100860004E4840780F2807D110214DA002F0F6FE27
:1008700001203A49087007E00020384908701F211C
:1008800047A002F0EBFE00BF00BF57E0434AD1781B
:10089000507800F07FFD414A1179907800F07AFDA0
:1008A0004CE0414800F029FD3F48C0783E49897836
:1008B000CDE900103C48437802783CA11BA802F027
:1008C000D9FE1BA93CA002F0C9FE37E033484078AE
:1008D000A0B13248807888B13048C07870B12F4BD1
:1008E000DB785B1E9AB22D4B9B785B1E99B22B4B2B
:1008F0005B785B1E98B200F0DCF905E0274BDA78F4
:100900009978587800F0D5F918E017E02348407836
:10091000F02807D1012015490870602120A002F0BD
:100920009DFE07E06F211EA002F098FE00200F49F7
:10093000087000BF00BF01E0FFE700BF00BF00205C
:1009400004E00021154A1154411C88B2C828F8DD82
:10095000FFF711FFFFF71FFF58E700002E000020F0
:1009600020000020B4812142008021422F0000207D
:10097000743A25640A000000004400400038014039
:10098000B2E2CAD4C5DCB7C9B3CCD0F23A25640A06
:10099000000000001E00002066664A3F3809002063
:1009A00025640D0A0000000018000020256425645D
:1009B000256425640000000025730D0A0000000076
:1009C00008B50121082001F00DFC4FF44050ADF8AE
:1009D000000010208DF8030003208DF80200694606
:1009E000044801F043F94FF44051024801F0EBF99B
:1009F00008BD0000000C014000B587B001214FF494
:100A0000017001F0EFFB4FF4004001F04FFB0120BB
:100A1000ADF8040028208DF8070001A94F4801F027
:100A200025F94F4800F00CFE002002908DF80C00D4
:100A30008DF80D004FF460200490002005900120F7
:100A40008DF8180002A9464800F021FE0121444813
:100A500000F049FE424800F068FE00BF404800F048
:100A600069FE0028FAD13E4800F06EFE00BF3C4807
:100A700000F06FFE0028FAD107B000BD10B50446A3
:100A8000072301222146364800F099FE012134480F
:100A900000F069FE00BF0221314800F0D5FF0028B8
:100AA000F9D02F4800F0F2FE10BD2DE9F0410746C5
:100AB0000C460025002608E03846FFF7DFFF054416
:100AC000052002F09CFD701CC6B2A642F4DBB5FB0B
:100AD000F4F080B2BDE8F0812DE9F047012100205B
:100AE000FFF7E3FF8146484603F078F9824603F0BA
:100AF0001DF907464FF066321A4B02F0E3FF054638
:100B000002F066FF0446FF21174802F019FC052099
:100B100002F075FD0321144802F012FC052002F0DA
:100B20006EFD0021104802F00BFC052002F067FD6D
:100B3000204603F033F985B229460B4802F000FC49
:100B4000052002F05CFDFF21074802F0F9FB4FF49D
:100B50007A7002F054FDBDE8F08700000008014003
:100B60000024014066664A3F0038014008B5012173
:100B7000042001F037FB4020ADF8000018208DF86C
:100B8000030003208DF802006946524801F06EF818
:100B90000121042001F026FB8020ADF80000182080
:100BA0008DF8030003208DF802006946494801F0E2
:100BB0005DF80121082001F015FB0120ADF80000CF
:100BC00018208DF8030003208DF802006946424882
:100BD00001F04CF80121082001F004FB0120ADF8E0
:100BE000000018208DF8030003208DF802006946EC
:100BF000394801F03BF808BD00B587B0012102205B
:100C000001F0FDFAFF20ADF8140040F2CF70ADF80E
:100C100010000020ADF81600ADF812008DF8180095
:100C200004A92E4801F016FC6020ADF80000012058
:100C3000ADF802000220ADF808000020ADF8060073
:100C40006946264801F043FC0821244802F08EF84A
:100C50000020ADF806006946204801F07AFC082122
:100C60001E4802F08CF80020ADF8060069461B48CB
:100C700001F0BCFC0821194802F08EF80020ADF804
:100C800006006946154801F0FCFC0821134802F0F3
:100C90008CF80121114802F039F801210F4801F0C8
:100CA00035FF07B000BD10B5FFF760FFFFF7A4FFE9
:100CB00010BD70B504460E4615462146074802F0A1
:100CC000BDF93146054802F0BBF92946034802F058
:100CD000B9F970BD00080140000C0140000400405B
:100CE0001FB5012140F2011001F07CFA4FF40040E1
:100CF000ADF80C0048208DF80F0003A9204800F043
:100D0000B5FF4FF4004000F048FF0F21062001F02E
:100D1000C3F84FF40040019000208DF808000C202B
:100D20008DF8090001208DF80A0001A800F0BEFE30
:100D30004FF4C06000F016FC28208DF80000002061
:100D40008DF8010001208DF802008DF8030068463F
:100D500000F00DFC1FBD10B5002408E0601CC4B2FB
:100D6000142002F028FCFA2C01DB204610BD4FF4C1
:100D70000041034801F00DF80128EFD02046F5E7C7
:100D80000020014000BF011EA0F10100FBD170470F
:100D900008B5FFF772FB0121082001F023FA20209B
:100DA000ADF8000010208DF8030003208DF802003C
:100DB00069461A4800F05AFF08BD10B541F2883460
:100DC0000EE02021154800F0FEFF2046FFF7DAFF75
:100DD0002021124800F0F9FF2046641EFFF7D2FFE1
:100DE000201EA4F10104ECD110BD10B54FF47A74AB
:100DF0000EE02021094800F0E6FF2046FFF7C2FF81
:100E00002021064800F0E1FF2046641EFFF7BAFFEC
:100E1000201EA4F10104ECD110BD0000000C014023
:100E200010B5002807DA0A07140E374A00F00F033E
:100E30001B1FD45403E00A07130E344A135410BD89
:100E400010B50446B4F1807F01D3012010BD24F019
:100E50007F40401E4FF0E02148610F214FF0FF30EE
:100E6000FFF7DEFF00204FF0E021886107200861D6
:100E70000020EBE710B5264800682649B0FBF1F4E6
:100E80002046FFF7DDFF08B100BFFEE710BD01B54A
:100E900021490098086000BF1F4800680028FBD166
:100EA00008BD01B54FF47A71009848431A490860AB
:100EB00000BF194800680028FBD108BD01B51549DD
:100EC000009848431449086000BF13480068002890
:100ED000FBD108BD1048006820B10F480068401ED3
:100EE0000D490860704710B5094800680949B0FB12
:100EF000F1F42046FFF7A4FF08B100BFFEE7002190
:100F0000481EFFF78DFF10BD18ED00E000E400E083
:100F10000400002040420F003C01002010B5A0203A
:100F200000F072F908B9012010BD00F09EF8002011
:100F3000FAE72DE9F04106460F46154600F079F82C
:100F4000A02000F0A5F800F0F5F800B125E0F8B217
:100F500000F09EF800F0EEF800B11EE000F069F835
:100F6000A12000F095F800F0E5F800B115E00024AC
:100F70000CE000F0BDF83055681EA04202D000F031
:100F8000FAF801E000F013F9601C84B2AC42F0DB27
:100F900000F06BF80120BDE8F08100F066F8002059
:100FA000F9E72DE9F0470746884691464646002472
:100FB0002CE014B106F00700E8B900F056F800255F
:100FC0000AE000F036F8A02000F062F800F0B2F875
:100FD00000B904E0681C85B2B5F57A7FF1DB00BF8B
:100FE000B5F57A7F00D118E0F0B200F051F800F0CA
:100FF000A1F800B111E0385D00F04AF800F09AF86D
:1010000000B10AE0701C86B2601C84B24C45D0DB93
:1010100000F02BF80120BDE8F08700F026F8002052
:10102000F9E70000002001E0411CC8B20A28FBDB00
:10103000704710B54FF400617B4800F0C4FE4FF4D8
:101040008061794800F0BFFEFFF7ECFF4FF40061CC
:10105000754800F0BAFEFFF7E5FF4FF48061724873
:1010600000F0B3FEFFF7DEFF10BD10B54FF40061D6
:101070006D4800F0AAFE4FF480616B4800F0A3FEBB
:10108000FFF7D0FF4FF40061674800F09CFE10BDF1
:1010900070B50446002528E004F0800028B14FF424
:1010A0000061614800F08FFE04E04FF400615E488B
:1010B00000F08BFEFFF7B6FF4FF480615A4800F056
:1010C00082FEFFF7AFFF4FF48061574800F07DFECE
:1010D000072D04D14FF40061534800F074FE600600
:1010E000040EFFF79FFF681CC5B2082DD4DB70BD4E
:1010F00070B50024002519E06006040E4FF48061ED
:10110000494800F060FEFFF78DFF4FF4006146484C
:1011100000F03FFE08B1601CC4B24FF48061424849
:1011200000F053FEFFF77EFF681CC5B2082DE3DB1D
:10113000204670BD10B54FF400613B4800F043FEFF
:10114000FFF770FF4FF48061374800F03CFEFFF777
:1011500069FF4FF40061344800F01BFE08B1012420
:1011600000E000244FF480612F4800F02EFEFFF7CE
:1011700059FF204610BD10B54FF400612A4800F019
:1011800024FEFFF74FFF4FF48061274800F01BFE5D
:10119000FFF748FF4FF48061234800F016FEFFF789
:1011A00041FF4FF40061204800F00DFE10BD10B566
:1011B0004FF400611C4800F006FEFFF733FF4FF4C8
:1011C0008061194800F0FFFDFFF72CFF4FF48061AC
:1011D000154800F0FAFDFFF725FF10BD08B5012105
:1011E000082000F0FFFF4FF44060ADF8000003203E
:1011F0008DF8020014208DF8030069460A4800F0BB
:1012000035FDFFF732FF08BD70B50446FFF7E6FF76
:10121000FFF70FFF2046FFF73BFFFFF78BFF054669
:10122000FFF723FF284670BD000C014008B50121DF
:10123000080200F0D7FF03208DF8020028208DF867
:1012400003004FF40060ADF800006946504800F01C
:101250000DFD08BD08B50121080200F0C3FF1020F4
:101260008DF80300C001ADF8000003208DF80200E6
:101270006946474800F0FAFC08BD10B5FFF7EAFFE1
:101280004FF40061424800F0A0FD46F2A81002F0C1
:1012900092F94FF400613E4800F095FD032002F002
:1012A0008AF910BD70B5002400250026FFF7BEFFA7
:1012B00000BF1EE06006040E00BF4FF4006134481A
:1012C00000F067FD0028F8D004E0012002F073F977
:1012D000701CC6B24FF400612D4800F05AFD012881
:1012E000F3D0092E02DB44F0010400260026681C1E
:1012F000C5B2082DDEDB204670BD2DE9F04704465F
:10130000FFF7BBFFFFF792FF00BF4FF400612048DB
:1013100000F03FFD0128F8D04FF400611C4800F0B8
:1013200038FD90BB00BF4FF40061194800F031FD5B
:101330000028F8D000BF4FF40061154800F029FDE7
:101340000128F8D0FFF7AEFF0746FFF7ABFF804656
:10135000FFF7A8FF0546FFF7A5FF0646FFF7A2FF28
:101360008146FFF777FF4FF40061094800F02BFD3D
:1013700007EB080028443044484506D1277084F81C
:101380000180A570E67084F80490BDE8F087000045
:10139000002001407FB505460C46022D00DD7FBDD3
:1013A000A52C00DDFBE7012C00DAF8E7681E2D49CB
:1013B0000C5404EB440000EBC40040F6C411081ABE
:1013C00086B26020ADF800000120ADF80200701E6A
:1013D00080B2ADF806000020ADF80800012D02D063
:1013E000022D12D108E069461F4801F0FFF80821DC
:1013F0001D4801F0D1FCD2E769461B4801F041F9D4
:101400000821194801F0D1FCC9E700BFC7E710B5B2
:10141000022210211348FFF78CFD12480078FF28A4
:1014200011D110484078FF280DD1002404E05A2043
:101430000C490855601CC4B2022CF8DB02221021B2
:101440000848FFF7AEFD00F062F8002406E005480A
:10145000015D601CFFF79EFF601CC4B2022CF6DB2E
:1014600010BD0000400100200008004008B5012127
:10147000042000F0C4FE0121082000F0B3FE4FF468
:101480004070ADF8000018208DF8030003208DF89F
:1014900002006946214800F0E9FB08BD00B587B0AD
:1014A00044F61F60ADF814004720ADF8100000208E
:1014B000ADF81600ADF8120004A9194800F0CAFFF3
:1014C0006020ADF800000120ADF8020040F2EE20EF
:1014D000ADF806006946124801F088F80821104866
:1014E00001F05AFC0120ADF8020040F2EE20ADF808
:1014F000060069460A4801F0C4F80821084801F0CE
:1015000054FC0121064801F001FB07B000BD10B5F5
:10151000FFF7ACFFFFF7C2FF10BD0000000C014059
:10152000000800400948804709480047FEE7FEE7F9
:10153000FEE7FEE7FEE7FEE7FEE7FEE7FEE7FEE783
:1015400004480549054A064B704700007B04000823
:1015500031010008600A002060100020600C0020AB
:10156000600C002031490143314A1160704770B569
:10157000002100230F22C47804B32D4C246804F406
:10158000E064C4F5E064210AC1F10403CA40447870
:1015900004FA03F18478144021430901254C0678AC
:1015A000A155047804F01F050124AC4005786D11A5
:1015B000AD0005F1E025C5F8004109E0047804F02C
:1015C0001F050124AC401C4D0678761145F82640D5
:1015D00070BD1A4A0A400243154B1B1F1A60704720
:1015E00039B1134A121D12680243114B1B1D1A60B8
:1015F00006E00F4A121D126882430D4B1B1D1A6034
:101600007047042808D14FF0E021096941F0040136
:101610004FF0E022116107E04FF0E021096921F06D
:1016200004014FF0E0221161704700000000FA054C
:101630000CED00E000E400E080E100E080FFFF1F2F
:1016400010B50446FA48844208D10121401500F043
:10165000E3FD0021601500F0DFFD17E0F54884424E
:1016600008D10121001500F0D7FD0021201500F060
:10167000D3FD0BE0F048844208D10121C80300F0FB
:10168000CBFD00214FF4004000F0C6FD10BD30B589
:101690000246002000235068E84C20400D790C6879
:1016A00044EA0524204350609068E54C2040D1E98D
:1016B00002542C434D7944EA450420439060D06A9B
:1016C00020F470000C7C641EE4B2234340EA035013
:1016D000D06230BD00210160017141718160C16043
:1016E00001210174704721B1826842F001028260D9
:1016F00003E0826822F001028260704721B18268B3
:1017000042F48072826003E0826822F48072826018
:10171000704710B50023CBB21AB144681C43446033
:1017200002E044689C43446010BD816841F00801B8
:1017300081607047014600208A6802F008020AB101
:10174000012000E000207047816841F004018160C1
:101750007047014600208A6802F004020AB10120A5
:1017600000E00020704721B1826842F4A00282604C
:1017700003E0826822F4A0028260704701460020E4
:101780008A6802F480020AB1012000E0002070475C
:1017900010B50A4600210023416821F46041531E20
:1017A00041EA4331416010BD21B1426842F4006218
:1017B000426003E0426822F4006242607047F0B584
:1017C00004460D4600200021092D11DDE068A5F139
:1017D0000A0606EB4607072606FA07F18843A5F135
:1017E0000A0606EB460603FA06F10843E0600CE041
:1017F000206905EB4507072606FA07F1884305EB44
:10180000450603FA06F108432061072A0FDA606BE8
:10181000561E06EB86071F2606FA07F18843561E5A
:1018200006EB860605FA06F10843606322E00D2AFE
:101830000FDA206BD61F06EB86071F2606FA07F184
:101840008843D61F06EB860605FA06F10843206397
:1018500010E0E06AA2F10D0606EB86071F2606FAE5
:1018600007F18843A2F10D0606EB860605FA06F19C
:101870000843E062F0BD21B1826842F480128260C8
:1018800003E0826822F48012826070470146C86CCF
:1018900080B2704766484C300068704721B142689A
:1018A00042F48062426003E0426822F48062426057
:1018B000704721B1426842F48052426003E04268BE
:1018C00022F48052426070470A460021816821F468
:1018D000E04111438160704721B1826842F40042C7
:1018E000826003E0826822F400428260704721B186
:1018F000826842F40212826003E0826822F40212DB
:1019000082607047014600208A6802F400120AB122
:10191000012000E000207047F0B504461546002085
:1019200000220026092911DDE068A1F10A0707EB72
:10193000470C072707FA0CF29043A1F10A0707EBBF
:10194000470703FA07F21043E0600CE0206901EB5F
:10195000410C072707FA0CF2904301EB410703FA09
:1019600007F210432061A06BC0F30156EF1C06F193
:10197000010CA7EB0C0707EB870C1F2707FA0CF2EB
:101980009043EF1C06F1010CA7EB0C0707EB870750
:1019900001FA07F21043A063F0BD10B50A4600211A
:1019A0000023816B21F44011531E41EA03518163EE
:1019B00010BD08B5002300930090009B0B440093DA
:1019C000009B1A6008BD08B50246002000900092F6
:1019D00001F12800009B184400900098006880B234
:1019E00008BD0A4600214168164B19401143416069
:1019F00070474162826270470A460021416821F0C7
:101A00001F0111434160704740B10949083109681D
:101A100041F40001064A0832116007E00449083128
:101A2000096821F40001024A083211607047000081
:101A30000024014000280140003C0140FFFEF0FF6F
:101A4000FDF7F1FFFFFD3FFF0246002013680B404A
:101A50000BB1012000E000207047CA4302607047CC
:101A600070B502460020002300240B125568CEB248
:101A700005EA060415681D4015B10CB1012000E00F
:101A8000002070BD00220A12D3430360704700009B
:101A9000002044490860091D0860091D0860091DEF
:101AA000086041483F4914310860704700213D49B2
:101AB0008279002A3AD00A46126803689A430B4694
:101AC0001A600A1D126803689A430B1D1A60027996
:101AD00011440A6803681A430A60324A08321268DD
:101AE00003689A432F4B08331A601A1D1268036863
:101AF0009A432C4B0C331A604279102A0ED11A1FCC
:101B0000126803681A43274B08331A601A1D1268BB
:101B100003681A43234B0C331A600DE021494279C4
:101B200011440A6803681A430A6005E00279114407
:101B30000A6803689A430A607047002101600171D6
:101B40000C214171002181717047164910310968DB
:101B50000143144A10321160704701460020114AB7
:101B6000143212680A400AB1012000E000207047D8
:101B70000C49143108607047014600200022094BCF
:101B80001B6803EA0102074B14331B680B4013B1B7
:101B90000AB1012000E000207047024914310860BA
:101BA0007047000000040140FFFF0F0010B504461D
:101BB000CC48844208D10121042000F02DFB0021F3
:101BC000042000F029FB46E0C748844208D10121E7
:101BD000082000F021FB0021082000F01DFB3AE066
:101BE000C248844208D10121102000F015FB0021D9
:101BF000102000F011FB2EE0BD48844208D10121E5
:101C0000202000F009FB0021202000F005FB22E04D
:101C1000B848844208D10121402000F0FDFA00219B
:101C2000402000F0F9FA16E0B348844208D10121BF
:101C3000802000F0F1FA0021802000F0EDFA0AE0A7
:101C4000AE48844207D10121801500F0E5FA002159
:101C5000A01500F0E1FA10BD10B50121084600F012
:101C6000DBFA0021012000F0D7FA10BD2DE9F04188
:101C7000024600250026002000230024002791F8BA
:101C800003C00CF00F0591F803C00CF0100CBCF170
:101C9000000F03D091F802C04CEA050591F800C08E
:101CA000BCF1000F31D0146800202BE04FF0010C84
:101CB0000CFA00F3B1F800C00CEA03069E4220D1F2
:101CC00083004FF00F0C0CFA03F7BC4305FA03FC3A
:101CD0004CEA040491F803C0BCF1280F06D14FF080
:101CE000010C0CFA00FCC2F814C00AE091F803C021
:101CF000BCF1480F05D14FF0010C0CFA00FCC2F802
:101D000010C0401C0828D1D31460B1F800C0BCF149
:101D1000FF0F34DD546800202EE000F1080C4FF076
:101D2000010808FA0CF3B1F800C00CEA03069E4261
:101D300021D183004FF00F0C0CFA03F7BC4305FAD6
:101D400003FC4CEA040491F803C0BCF1280F05D150
:101D500000F1080C08FA0CF8C2F8148091F803C0DE
:101D6000BCF1480F07D100F1080C4FF0010808FA48
:101D70000CF8C2F81080401C0828CED35460BDE88F
:101D8000F0814FF6FF710180022181700421C17042
:101D900070470246002093680B400BB1012000E021
:101DA000002070470146886880B2704702460020D4
:101DB000D3680B400BB1012000E0002070470146C2
:101DC000C86880B2704701617047416170470AB1CD
:101DD000016100E041617047C16070474FF480329B
:101DE0000A43826181618261826982697047024629
:101DF0000020434B18684FF68073184040EA0210E9
:101E000008433F4B186070473E49C8617047F0B5C2
:101E10000A46002300240021002500F00046B6F108
:101E2000004F02D1364EF16901E0354E7168C0F3C2
:101E3000034583B200F44016B6F5401F08D121F0E7
:101E400070612F4E766826F070662D4F7E6012E02E
:101E500000F48016B6F5801F06D1032606FA05F4B5
:101E6000A14341F0706106E0460D360103FA06F623
:101E7000B14341F0706122B1460D360103FA06F616
:101E8000314300F00046B6F1004F02D11C4EF16123
:101E900001E01B4E7160F0BD30B500228B071C0FB6
:101EA0000F2303FA04F2164B08338C1053F8243036
:101EB0009343134C08348D1044F8253023468C107E
:101EC00053F824308C07240F00FA04F423430C4CFD
:101ED00008348D1044F8253030BD0A49DC310860E3
:101EE0007047000000080140000C01400010014054
:101EF0000014014000180140001C01400020014076
:101F00000000014000002042DF48006840F001006E
:101F1000DD49086008464068DC490840DA49486005
:101F200008460068DA490840D74908600846006852
:101F300020F4802008600846406820F4FE004860D5
:101F40004FF41F0088607047CF49096821F4803141
:101F5000CD4A11601146096821F480211160B0F565
:101F6000803F03D0B0F5802F0ED106E0C649096846
:101F700041F48031C44A116007E0C349096841F463
:101F8000A021C14A116000E000BF00BF704710B53A
:101F900001460022002300204A11012A02D1BA4C36
:101FA000236806E0022A02D1B74C236A01E0B64C4E
:101FB000636A01F01F02012494401C400CB101200F
:101FC00000E0002010BD38B500200090002400255E
:101FD00000BF3120FFF7DBFF05460098401C009052
:101FE0000098B0F5A06F01D0002DF2D03120FFF79E
:101FF000CEFF08B1012400E00024204638BD014690
:102000000020A14A106820F0F80040EAC1001060EA
:102010007047A04908607047024600209A4B5868F4
:1020200020F47C1042EA01031843974B5860704734
:1020300098490866704701460020934A506820F08E
:1020400003000843506070478F48406800F00C0060
:102050007047014600208C4A506820F0F000084389
:102060005060704701460020874A506820F4E060C5
:1020700008435060704701460020834A506820F4AE
:10208000605040EAC1005060704729B17E4A527AE0
:1020900002437D4B5A7204E07B4A527A82437A4B68
:1020A0005A7270477B49D83108607047014600205A
:1020B000754A506820F44040084350607047002142
:1020C000714A20321170704A82F82010012802D023
:1020D00004280AD104E001216B4A2032117005E086
:1020E0000521694A2032117000E000BF00BF70472F
:1020F0006949086070476449096A0143624A11628C
:102100007047654944390860704730B500210022A6
:10211000002400235C4D6D6805F00C0121B10429F9
:1021200005D0082923D105E05C4D056022E05B4D18
:1021300005601FE0544D6D6805F47012524D6D68D6
:1021400005F48034022505EB92421CB9544D5543E9
:1021500005600BE04C4D6D6805F400351DB1504D28
:102160005543056002E04D4D5543056002E04B4D7F
:10217000056000BF00BF444D6D6805F0F00109091E
:10218000484D6B5C0568DD4045603F4D6D6805F46A
:10219000E061090A434D6B5C4568DD4085603A4D5E
:1021A0006D6805F46051C90A3E4D6B5C4568DD40C1
:1021B000C560354D6D6805F44041890B3A4D6B5C47
:1021C000C568B5FBF3F5056130BD29B12E4A5269EA
:1021D00002432D4B5A6104E02B4A526982432A4B39
:1021E0005A61704729B1284A92690243264B9A6185
:1021F00004E0254A92698243234B9A61704729B1D2
:10220000214AD2690243204BDA6104E01E4AD269B6
:1022100082431D4BDA61704729B11B4AD2680243E1
:10222000194BDA6004E0184AD2688243164BDA6030
:10223000704729B1144A12690243134B1A6104E032
:10224000114A12698243104B1A6170471249403992
:10225000086070470F49C86470470B49C8717047E0
:102260000948406A40F0807007494862704701465B
:102270000020054A92680A400AB1012000E00020CF
:102280007047014988727047001002400000FFF853
:10229000FFFFF6FE000042428004424200127A0034
:1022A00000093D00490100205901002010B50446F5
:1022B000FE48844208D10121C014FFF7ADFF002180
:1022C000E014FFF7A9FFC4E0B4F1804F08D1012169
:1022D0000846FFF7AEFF00210120FFF7AAFFB8E094
:1022E000F348844208D101210220FFF7A2FF002118
:1022F0000220FFF79EFFACE0EE48844208D10121A6
:102300000420FFF796FF00210420FFF792FFA0E0D2
:10231000E948844208D101210820FFF78AFF002103
:102320000820FFF786FF94E0E448844208D10121A9
:102330001020FFF77EFF00211020FFF77AFF88E0D2
:10234000DF48844208D101212020FFF772FF0021DD
:102350002020FFF76EFF7CE0DA48844208D101219B
:102360004014FFF759FF00216014FFF755FF70E09C
:10237000D548844209D10121C804FFF74DFF00214F
:102380004FF40020FFF748FF63E0D048844209D1B2
:1023900001210805FFF740FF00214FF48010FFF7EF
:1023A0003BFF56E0CA48844209D101214805FFF7A6
:1023B00033FF00214FF40010FFF72EFF49E0C5481E
:1023C000844208D101214020FFF733FF0021402043
:1023D000FFF72FFF3DE0C048844208D10121802053
:1023E000FFF727FF00218020FFF723FF31E0BB48E4
:1023F000844208D101218015FFF71BFF0021A015A1
:10240000FFF717FF25E0B648844209D101210804EF
:10241000FFF702FF00214FF48030FFF7FDFE18E0C8
:10242000B048844209D101214804FFF7F5FE00219C
:102430004FF40030FFF7F0FE0BE0AB48844208D1C8
:1024400001218804FFF7E8FE00214FF48020FFF708
:10245000E3FE10BD00220288944B98420ED0994BA7
:1024600098420BD0B0F1804F08D0914B984205D0E4
:10247000904B984202D0904B984204D14FF68F7304
:102480001A404B881A438D4B984207D08C4B984288
:1024900004D04FF6FF431A40CB881A4302808B8842
:1024A00083850B880385814B98420BD0854B9842DE
:1024B00008D08B4B984205D08A4B984202D08A4B69
:1024C000984201D10B7A038601238382704770B54D
:1024D000002400220023058C4FF6FE76354005844B
:1024E000028C8388048B4FF68F752C40B51E2C40D0
:1024F0000D882C43751E2A400D892A434D882A4396
:102500006A4DA8420BD06F4DA84208D0744DA84226
:1025100005D0744DA84202D0734DA84213D14FF696
:10252000F7752A404D892A434FF6FB752A408D885E
:102530002A434FF6FF652B404FF6FF552B408D8900
:102540002B43CD892B4383800483CD8885860284E9
:1025500070BD70B5002400220023058C4FF6EF7685
:1025600035400584028C8388048B48F6FF752C4027
:102570004FF6FF452C400D884FF6FF7606EA0525FD
:102580002C434FF6DF752A400D8906EA05152A43CC
:102590004D8806EA05152A43444DA84202D0494D0C
:1025A000A8421DD14FF67F752A404D894FF6FF7620
:1025B00006EA05152A434FF6BF752A408D8806EABC
:1025C00005152A434FF6FF352B404FF2FF752B4080
:1025D0008D8906EA85052B43CD8906EA85052B43BF
:1025E00083800483CD880587028470BD70B5002484
:1025F00000220023058C4FF6FF6635400584028CCF
:102600008388848B4FF68F752C404FF6FC752C40D9
:102610000D882C434FF6FF552A400D894FF6FF7663
:1026200006EA05252A434D8806EA05252A431F4D5B
:10263000A84202D0234DA8421DD14FF2FF752A4077
:102640004D894FF6FF7606EA05252A434FF6FF35FA
:102650002A408D8806EA05252A434EF6FF752B4051
:102660004DF6FF752B408D8906EA05152B43CD8964
:1026700006EA05152B4383808483CD8885870284F1
:1026800070BD70B5002200230024058C4EF6FF7645
:1026900035400584038C8488828B48F6FF752A4078
:1026A0004FF6FF452A400D8820E00000002C014035
:1026B0000004004000080040000C004000100040F2
:1026C0000014004000340140004C01400050014023
:1026D0000054014000180040001C00400020004051
:1026E0000040014000440140004801404FF6FF76A1
:1026F00006EA05252A434DF6FF752B400D8906EAAB
:1027000005352B434D8806EA05352B43FA4DA84283
:1027100002D0FA4DA84208D14BF6FF752C408D89A6
:102720004FF6FF7606EA85152C4384808283CD8898
:10273000A0F84050038470BD828B4FF2FF331A40E3
:102740008283828B4FF6FF7303EA01231A4382834D
:102750007047F0B50C461546002200210026078C74
:102760004EF6FF7C07EA0C070784828B018C4FF63C
:10277000FF7707EA043640F6FF473A404FF6FF7707
:1027800007EA05273A434FF6FF7707EA03373A434C
:10279000D94FB8420ED0D94FB8420BD0B0F1804FCC
:1027A00008D0D74FB84205D0D64FB84202D0D64F46
:1027B000B84206D14DF6FF77394046F48057394389
:1027C00005E047F6FF57394044F480573943828388
:1027D0000184F0BD828B4FF6F3731A408283828BA3
:1027E0000A4382837047F0B50C461546002200214B
:1027F0000026078C4FF6FF6C07EA0C070784828BD4
:10280000018C4FF6FF7707EA04264FF60C773A4023
:102810004FF6FF7707EA03172F433A43B64FB84204
:102820000ED0B64FB8420BD0B0F1804F08D0B44FA5
:10283000B84205D0B34FB84202D0B34FB84206D128
:102840004FF6FF57394046F48077394305E04FF2A1
:10285000FF57394044F48077394382830184F0BDC7
:10286000028B4FF2FF331A400283028B4FF6FF7345
:1028700003EA01231A4302837047F0B50C4615465C
:10288000002200210026078C4FF6EF7C07EA0C0798
:102890000784028B018C4FF6FF7707EA041640F697
:1028A000FF473A404FF6FF7707EA03373A434FF6C0
:1028B000FF7707EA05273A438F4FB8420ED08F4F74
:1028C000B8420BD0B0F1804F08D08D4FB84205D040
:1028D0008C4FB84202D08C4FB84206D14FF6DF770A
:1028E000394046F01007394305E04FF65F7739402D
:1028F00044F01007394302830184F0BD028B4FF688
:10290000F3731A400283028B0A4302837047F0B5C7
:102910000C46154600220021068C4FF6FE773E40FD
:102920000684028B018C4FF60C7632407E1C06EA40
:1029300003162E433243704EB0420ED06F4EB0425B
:102940000BD0B0F1804F08D06D4EB04205D06D4E27
:10295000B04202D06C4EB04206D14FF6FD76314007
:1029600044F00106314305E04FF6F576314044F07E
:102970000106314302830184F0BD70B505460C4663
:102980005D4885420ED05D4885420BD0B5F1804F41
:1029900008D05B48854205D05A48854202D05A4843
:1029A000854200D100E000BF208850B92389A28869
:1029B00061882846FFF7ABFFE1882846FFF79EFFB6
:1029C00025E0208804280AD12389A2886188284626
:1029D000FFF753FFE1882846FFF742FF17E0208802
:1029E00008280AD12389A28861882846FFF7FBFEC0
:1029F000E1882846FFF7EEFE09E02389A288618876
:102A00002846FFF7A6FEE1882846FFF795FE70BD31
:102A10002DE9F04105460C4600260127608808B9DB
:102A2000022600E00026A088012801D1022700E04C
:102A300001272088A0B92389A28861882846FFF74A
:102A400066FFE1882846FFF759FF23893A46314659
:102A50002846FFF712FFE1882846FFF701FF13E041
:102A60002389A28861882846FFF707FFE188284666
:102A7000FFF7F6FE23893A4631462846FFF747FF1F
:102A8000E1882846FFF73AFFBDE8F0810A884B88C5
:102A90001A438B881A43CB881A430B891A434B89F4
:102AA0001A438B891A43A0F8442070474FF6FF71F0
:102AB000818000210180C180418001727047002126
:102AC000018041808180C180018141818181C181FA
:102AD0007047002101804180012181800021C18057
:102AE000018170470021018041808180C180018186
:102AF0004181818170470000002C01400034014079
:102B00000004004000080040000C004021B1028891
:102B100042F00102028004E002884FF6FE731A4080
:102B20000280704731B1B0F8442042F40042A0F86E
:102B3000442005E0B0F84420C2F30E02A0F844207F
:102B400070471AB183890B43838102E083898B43E9
:102B5000838170478182704741EA0203A0F84830C0
:102B600070471AB183890B43838102E083898B43C9
:102B70008381704701894FF6F872114001817047D7
:102B80000A46002101894FF68F73194011430181D4
:102B9000704730B504460D4629462046FFF7F0FF42
:102BA000208940F00700208130BD2DE9F041044626
:102BB0000D4616461F46602D06D13B460122314682
:102BC0002046FFF75AFE05E03B46012231462046EB
:102BD000FFF79DFE29462046FFF7D2FF208940F0EF
:102BE00007002081BDE8F08130B50C460021018945
:102BF000C9B24FF6FF7505EA03251543254329435E
:102C0000018130BD2DE9F04105460E461746984634
:102C1000002443463A4631462846FFF7E5FF2C8913
:102C20004FF6F870044044F007044FF68F700440EC
:102C300044F070042C81BDE8F081F0B504460D46E7
:102C400016461F463B46324629462046FFF7CCFF34
:102C5000208940F480402081F0BD01858282704748
:102C60000A46002101884FF68F73194011430180F5
:102C70007047F0B50C4615461E4600210022002381
:102C80000189028B038C4FF6F877394021434FF6C8
:102C9000FC473A4040F201173A434FF6DD773B409C
:102CA0004FF6FF7707EA06172F433B430181028364
:102CB0000384F0BD0A460021018B4FF68F73194043
:102CC0001143018370470A460021018B48F6FF73C8
:102CD00019404FF6FF7303EA02231943018370473B
:102CE0000A460021818B4FF68F731940114381836F
:102CF00070470A460021818B48F6FF7319404FF652
:102D0000FF7303EA022319438183704721B10288CC
:102D100042F08002028004E002884FF67F731A407E
:102D20000280704721B1828842F00402828004E070
:102D300082884FF6FB731A408280704721B18288E7
:102D400042F00802828004E082884FF6F7731A404E
:102D50008280704721B1828842F00102828004E0C3
:102D600082884FF6FE731A40828070470A4600211F
:102D7000018B4FF6F77319401143018370470A46E0
:102D80000021018B4FF2FF7319404FF6FF7303EAE6
:102D900002231943018370470A460021818B4FF6B5
:102DA000F77319401143818370470A460021818BD4
:102DB0004FF2FF7319404FF6FF7303EA02231943E2
:102DC000818370470A460021018B4FF6FB7319403F
:102DD0001143018370470A460021018B4FF6FF33F0
:102DE00019404FF6FF7303EA02231943018370472A
:102DF0000A460021818B4FF6FB73194011438183F2
:102E000070470A460021818B4FF6FF3319404FF679
:102E1000FF7303EA02231943818370470A460021A6
:102E2000018B4FF67F7319401143018370470A46A7
:102E30000021018BC1F30E014FF6FF7303EA022359
:102E40001943018370470A460021818B4FF67F7337
:102E500019401143818370470A460021818BC1F3D9
:102E60000E014FF6FF7303EA022319438183704773
:102E70000A460021018C4FF6FD731940114301846D
:102E800070470A460021018C4FF6F7731940114331
:102E9000018470470A460021018C4FF6DF73194008
:102EA0004FF6FF7303EA02131943018470470A4681
:102EB0000021018C4FF67F7319404FF6FF7303EA30
:102EC00002131943018470470A460021018C4FF612
:102ED000FF5319404FF6FF7303EA0223194301849D
:102EE00070470A460021018C4FF2FF7319404FF6DC
:102EF000FF7303EA02231943018470470A46002145
:102F0000018C4DF6FF7319404FF6FF7303EA02334D
:102F100019430184704730B5002301248C40A3B2CB
:102F2000048C9C430484048C02FA01F5ADB22C435A
:102F3000048430BD30B5002304248C40A3B2048C3B
:102F40009C430484048C02FA01F5ADB22C43048442
:102F500030BD70B503460020002418461830012506
:102F60008D40ACB21D8CA5431D8409B1082909D13F
:102F700000EB6100056825F07005056005681543E4
:102F800005600EE00D1FC5F34E052844056825F4C5
:102F9000E045056005684FF6FF7606EA02263543F0
:102FA000056070BD21B1028842F00202028004E097
:102FB00002884FF6FD731A400280704721B10288E3
:102FC00042F00402028004E002884FF6FB731A40CC
:102FD0000280704721B1828842F08002828004E042
:102FE00082884FF67F731A408280704702884FF6BE
:102FF000F7731A40028002880A4302807047828871
:103000004FF68F731A40828082880A43828070470D
:1030100002894FF6F8731A40028102890A4302813D
:10302000704702894FF67F731A40028102890A4372
:10303000028170478184704781857047818670471F
:103040000187704781877047A0F840107047028859
:103050004FF6FF431A40028002880A4302807047FD
:103060000146888E70470146088F70470146888F59
:1030700070470146B1F8400070470146888C7047A0
:103080000146088D704702460020138A0B400BB1A1
:10309000012000E000207047CA430282704730B52B
:1030A0000246002000230024158A05EA01039589C1
:1030B00005EA010413B10CB1012000E0002030BD8D
:1030C000CA4302827047000010B50446FB488442A0
:1030D00009D101218803FFF79FF800214FF48040B8
:1030E000FFF79AF832E0F648844209D101214804FA
:1030F000FFF79FF800214FF40030FFF79AF825E022
:10310000F048844209D101218804FFF792F8002198
:103110004FF48020FFF78DF818E0EB48844209D186
:103120000121C804FFF785F800214FF40020FFF7C4
:1031300080F80BE0E548844208D101210805FFF73B
:1031400078F800214FF48010FFF773F810BD2DE9D7
:10315000F04786B005460E460024A24600BFA146B1
:103160000027B08900B100BF2F462C8A4CF6FF70B3
:103170000440F08804432C82AC894EF6F3100440DE
:10318000B08831890843718908430443AC81AC8A13
:103190004FF6FF400440B0890443AC8201A8FEF71B
:1031A000B4FFC648874202D1DDF810A001E0DDF887
:1031B0000CA0A88900F4004040B10AEBCA0000EB63
:1031C0000A1031684900B0FBF1F807E00AEBCA00C9
:1031D00000EB0A1031688900B0FBF1F86420B8FBFD
:1031E000F0F004012009642101FB1089A88900F492
:1031F000004040B1322000EBC900B0FBF1F000F01C
:103200000700044308E0322000EB09106421B0FB02
:10321000F1F000F00F0004432C8106B0BDE8F08708
:103220004FF41651016000218180C18001810C2181
:10323000418100218181704710B502460020108A2B
:103240004FF2FF0318400B884C8823438C8823439C
:10325000CC8823431843108210BD00210180418097
:103260008180C180704721B1828942F400528281FD
:1032700004E082894DF6FF731A4082817047F0B5F1
:103280000346002400260025002040F66A17B942B4
:1032900000D100BF1846C1F3421401F01F060127F8
:1032A00007FA06F5012C01D10C3004E0022C01D103
:1032B000103000E014301AB107682F43076002E0B5
:1032C0000768AF430760F0BD1AB1838A0B4383825E
:1032D00002E0838A8B4383827047028A4FF6F07341
:1032E0001A400282028A0A430282704782894FF2A0
:1032F000FF731A40828182890A438281704721B11B
:10330000828942F00202828104E082894FF6FD73D5
:103310001A4082817047028A4FF6DF731A40028298
:10332000028A0A430282704721B1028A42F4804233
:10333000028204E0028A4BF6FF731A400282704751
:10334000C1F308028280704701468888C0F30800F4
:103350007047818941F0010181817047028BD2B2AF
:103360000283028B42EA012202837047028B02F43D
:103370007F420283028B0A430283704721B1828A13
:1033800042F02002828204E0828A4FF6DF731A4004
:103390008282704721B1828A42F01002828204E068
:1033A000828A4FF6EF731A408282704721B1828A77
:1033B00042F00802828204E0828A4FF6F7731A40D4
:1033C0008282704721B1828942F40042828103E007
:1033D0008289C2F30E028281704721B1828A42F44F
:1033E0000062828204E0828A4FF2FF731A40828276
:1033F0007047828A4FF6FB731A408282828A0A43A0
:103400008282704721B1828A42F00202828204E005
:10341000828A4FF6FD731A4082827047024600206E
:10342000B1F5007F00D100BF13880B400BB1012024
:1034300000E00020704701F40072B2F5007F00D177
:1034400000BFCA430280704770B5024600240023C3
:103450000025002040F66A16B14200D100BFC1F33A
:10346000421501F01F03012606FA03F3012D02D1D4
:103470009689334006E0022D02D1168A334001E0DE
:10348000968A33400C12012606FA04F4168834405A
:1034900013B10CB1012000E0002070BD10B5002276
:1034A000002340F66A14A14200D100BF0A12012491
:1034B0009440A3B2DC43048010BD000000380140FA
:1034C0000044004000480040004C004000500040D4
:1034D000014600BF704710B586B00446012144F292
:1034E0000400FEF77FFE4FF40070ADF814000320D7
:1034F0008DF8160018208DF8170005A91C48FEF756
:10350000B5FB4FF48060ADF8140004208DF817006F
:1035100005A91748FEF7AAFB25208DF80000032017
:103520008DF801008DF8020001208DF80300684637
:10353000FEF71DF801940020ADF80800ADF80A0070
:10354000ADF80C00ADF810000C20ADF80E0001A98C
:103550000848FFF7FCFD012240F225510548FFF71E
:103560008EFE01210348FFF77EFE06B010BD00006D
:10357000000801400038014010B54FF4A060FDF78D
:10358000F1FF10BD10B56FF00400FEF73AF82E48B9
:1035900000682E49B0FBF1F02D490870084600780C
:1035A00000EB4001C1EBC0104FF6FF7101EAC00013
:1035B0002849088010BD0146254A12784A434FF039
:1035C000E0235A6100229A611A46126942F0010210
:1035D0001A6100BF4FF0E022106900F001021AB139
:1035E00000F48032002AF5D04FF0E022126922F078
:1035F00001024FF0E0231A6100229A6170470146F0
:10360000144A12884A434FF0E0235A6100229A611B
:103610001A46126942F001021A6100BF4FF0E0221F
:10362000106900F001021AB100F48032002AF5D0CE
:103630004FF0E022126922F001024FF0E0231A61FC
:1036400000229A61704700000400002000127A00F6
:103650006401002066010020704700000FB4044997
:1036600010B503AA029800F06BF910BC5DF814FBCA
:10367000600100200FB41CB5074B06AA7B446946C5
:103680000090059800F02DF90020694600F03CF903
:103690001CBC5DF814FB0000890200002DE9F0411C
:1036A0000E460446002020622046E168884730B379
:1036B000252805D0D4E901219047206A401CF2E773
:1036C000E168204600278847050018D0A5F1410091
:1036D000192802D820354FF4006732462946204683
:1036E0002760FCF77FFD40B1012804D0F61D26F0CD
:1036F00007060836D8E7361DD6E72846DAE7206AF7
:10370000BDE8F08170B50C460546012A05D0287841
:10371000800600D5EA69002302E0012305E05B1C76
:10372000934202D2E05C0028F9D1A869E618C01AD9
:10373000A861286A184428622846AFF3008004E094
:10374000D5E9012114F8010B9047B442F8D328467B
:10375000AFF3008070BD00002DE9F0410646002463
:1037600010687529314616A510D0AFF300800028E7
:1037700002DA404213A507E031688A0701D512A595
:1037800002E0490704D511A5012401E0AFF3008050
:1037900000210A2206F1240709E0B0FBF2FCB0FB8D
:1037A000F2F302FB1C00303078541846491C002804
:1037B000F3D123462A463046BDE8F04100F033B845
:1037C000000000002D0000002B0000002000000081
:1037D0004FF0000200B5134694469646203922BFAA
:1037E000A0E80C50A0E80C50B1F12001BFF4F7AFF5
:1037F000090728BFA0E80C5048BF0CC05DF804EBD7
:10380000890028BF40F8042B08BF704748BF20F844
:10381000022B11F0804F18BF00F8012B7047704742
:103820007047704770472DE9F0470D46994692461C
:10383000044600F124080168880604D5E06921F0F7
:103840001001216000E00120A84201DD471B00E0DB
:103850000027A1697A1902EB0900081AA0612078F3
:10386000C00602D42046AFF30080002608E0D4E969
:1038700001211AF806009047206A401C761C20623D
:103880004E45F4DB2078C0060AD52046AFF3008011
:1038900006E0D4E9012130209047206A401C2062D4
:1038A000381EA7F10107F4DC07E0D4E9012118F87C
:1038B00005009047206A401C2062281EA5F10105E2
:1038C000F3DC2046AFF300802078000602D502200A
:1038D000BDE8F0870120FBE701694A1C0261087816
:1038E000704700B58FB0CDE9013100210591054940
:1038F0007944CDE9031011466846FFF7CFFE0FB0BB
:1039000000BD0000E5FFFFFF0A6802F8010B0A6036
:10391000704710B5436913B1AFF3008001E0FFF7C2
:10392000F1FE012010BD127800F124010A7000227E
:103930004A700122EDE711684FF0FF32E9E700001D
:10394000074B70B50D467B44FFF7CBFF0446284676
:1039500000F008F810B14FF0FF3070BD204670BD88
:1039600033CCFFFF007B00F080007047754600F00D
:103970002BF8AE4605006946534620F00700854601
:1039800018B020B5FDF7DCFDBDE820404FF0000683
:103990004FF000074FF000084FF0000B21F0070137
:1039A000AC46ACE8C009ACE8C009ACE8C009ACE87A
:1039B000C0098D46704710B50446AFF3008020461D
:1039C000BDE81040FCF723BC00487047000A002007
:1039D00021F00042A2F16052B2F5801F01F00043D5
:1039E00028BFD2F17F6C0BD95FEA001C43EAC20208
:1039F00042EB507018BF704728BF20F0010070479D
:103A0000B2F5801FBCBF184670474FEA410C1CF549
:103A1000001F02D2084600F06FBA70B500F0FCF843
:103A200000000089FFF7F6BF4FF00040A0F58000CE
:103A30007047491058BFC1F140415B1058BFC3F1F6
:103A400040438B42EFF300807047000051EA030CC3
:103A500017D41CF5801F58BFBCF5801F00F10680ED
:103A6000994218BF704708BF9042704707D711F5B9
:103A7000801F58BF13F5801F19D49942704789429F
:103A800070471CF5801F08D5BCF5801FF7D58B4209
:103A900018BF704708BF824270474FF4001C1CEBF0
:103AA000410F38BF1CEB430F01D28B42704770B5FA
:103AB00000F0B2F8922449004FF000514FF08053CB
:103AC000FFF7B7BFDFF848C170B51CEA111E1EBF73
:103AD0001CEA13159EEA0C0F95EA0C0F00F06F809C
:103AE00081EA030423EA4C134EEAD47E21EA4C1106
:103AF00041F4801143F48013AE44A1FB024CA0FBBF
:103B00000365AEF17F7E361955EB0C05A1FB034C26
:103B10004CF10003A0FB021C16EB0C06654153F1AF
:103B20000003094218BF46F0010613F4007F0BD1D1
:103B30004FEA03314FEA0530340341EA155140EAB8
:103B400016506FF003020AE04FEAC3214FEAC52086
:103B5000F40241EA555140EA56506FF0020202EB7E
:103B60002E4201EB025585EACE710AD05FEA440C81
:103B700018BF24F0004450F1000041F1000120EA98
:103B8000D47040F2FE7C624500D270BDA84214BFE2
:103B90004FF080444FF04044002E08BF0024BEF197
:103BA000806FA8BFA1F1C041BDE8704080F2828063
:103BB0004FF0000001F1C04101F0004170479EEA62
:103BC0000C0F0CEA131518BF95EA0C0F06D04FF036
:103BD000000081EA030E0EF0004170BD00F01CF8F9
:103BE0008900013E00F007B800F009B84FEA430C25
:103BF0005FEA5C5C08D081EA030100F05BB84FEA41
:103C0000410C5FEA5C5CF6D14FF00000014970475F
:103C10000000FF070000F87F0EF1020E2EF0030EE9
:103C20005EF8046B364205D4012A43EB030515F513
:103C3000001F12D8012841EB010C1CF5001F0CD805
:103C40000ED14FEAD17C15F5001F0CEB4C0C0CF19A
:103C5000020C08BF4CEBD37C04E04FF0080C01E0F1
:103C60004FEAD37C0CEB4C0526FA05F606F0070666
:103C7000B6F1040C06D20EEB860CBDE870404CF099
:103C8000010C6047DFE80CF0090B02024FF0004125
:103C90004FF00000A1F5002170BD19461046012823
:103CA00051EB010418BFD4F5001484BF002001F0CB
:103CB000004170BD0808A0F500114FEA31017047BE
:103CC00053EA010C17D41CF5801F58BFBCF5801FA8
:103CD00000F106808B4218BF704708BF82427047D0
:103CE00007D713F5801F58BF11F5801F19D48B42D9
:103CF00070479B4270471CF5801F08D5BCF5801F9C
:103D0000F7D5994218BF704708BF904270474FF4EB
:103D1000001C1CEB430F38BF1CEB410F01D2994232
:103D200070470FB40CBC03BCFFF7C1BE43004FEAA1
:103D3000D30C4FEA3C0C43401FBF40070CF16051CD
:103D400013F0FE4F70471CF0006F03D100200CF001
:103D5000004170470CF0004343EA507010B540EA50
:103D6000CC0000F083F800BF000000924FEA000191
:103D7000FFF7A0BF4FF000414FF00000A1F5002178
:103D80007047401058BFC0F14040491058BFC1F1C2
:103D900040418142EFF3008070470000C10DD1F136
:103DA0009E0206DB4FEA002343F0004323FA02F0B1
:103DB0007047004207D54FEA4001B1F1FE4F02D2F1
:103DC0004FF00000704710B500F050F84992248081
:103DD000002070476FEA200070470000B0FA80F3BF
:103DE00010FA03F2C3F19D030AD0D90501EB1220AA
:103DF000530638BF704700F1010008BF20F00100F2
:103E00007047000050EA010C00F113801CF5000F10
:103E100058BFBCF5000F01D48842704707D710F592
:103E2000000F58BF11F5000F15D488427047894222
:103E300070471CF5000F04D5BCF5000FF7D5814283
:103E400070474FF0807C1CEB400F38BF1CEB410FDC
:103E500001D28142704710B500F008F89224490061
:103E60004FF000504FF08051FFF78BBF0EF1020E64
:103E70002EF0030E5EF8044B244204D44FEA4102B4
:103E8000B2F17F4F11D84FEA4003B3F17F4F0CD806
:103E90000ED14FEAD07CB2F17F4F0CEB4C0C0CF101
:103EA000020C08BF4CEBD17C04E04FF0080C01E0A1
:103EB0004FEAD17C0CEB4C0324FA03F404F0070422
:103EC000B4F1040C06D20EEB840CBDE810404CF0AB
:103ED000010C6047DFE80CF0070802024FF00040D9
:103EE000A0F5800010BD0846420018BFD2F18072D4
:103EF00088BF00F0004010BDFF2141EAD050C0054E
:103F000070470000243F0008000000206801000006
:103F10006C0100084C3F000868010020F80E00000A
:103F2000C80100085184A24A0400091901020304CF
:103F30000607080929210A1B052201FA2D0102039F
:0C3F40000404B009060708090204060882
:0400000508000131BD
:00000001FF
